{
  "_format": "hh-sol-artifact-1",
  "contractName": "EIPNFT",
  "sourceName": "contracts/eipnft/EIPNFT.sol",
  "abi": [
    {
      "inputs": [
        {
          "internalType": "address",
          "name": "_owner",
          "type": "address"
        },
        {
          "internalType": "uint24",
          "name": "_defaultBips",
          "type": "uint24"
        },
        {
          "internalType": "address",
          "name": "paymaster",
          "type": "address"
        }
      ],
      "stateMutability": "nonpayable",
      "type": "constructor"
    },
    {
      "anonymous": false,
      "inputs": [
        {
          "indexed": true,
          "internalType": "address",
          "name": "owner",
          "type": "address"
        },
        {
          "indexed": true,
          "internalType": "address",
          "name": "approved",
          "type": "address"
        },
        {
          "indexed": true,
          "internalType": "uint256",
          "name": "tokenId",
          "type": "uint256"
        }
      ],
      "name": "Approval",
      "type": "event"
    },
    {
      "anonymous": false,
      "inputs": [
        {
          "indexed": true,
          "internalType": "address",
          "name": "owner",
          "type": "address"
        },
        {
          "indexed": true,
          "internalType": "address",
          "name": "operator",
          "type": "address"
        },
        {
          "indexed": false,
          "internalType": "bool",
          "name": "approved",
          "type": "bool"
        }
      ],
      "name": "ApprovalForAll",
      "type": "event"
    },
    {
      "anonymous": false,
      "inputs": [
        {
          "indexed": true,
          "internalType": "address",
          "name": "from",
          "type": "address"
        },
        {
          "indexed": true,
          "internalType": "address",
          "name": "to",
          "type": "address"
        },
        {
          "indexed": true,
          "internalType": "uint256",
          "name": "tokenId",
          "type": "uint256"
        }
      ],
      "name": "Transfer",
      "type": "event"
    },
    {
      "inputs": [
        {
          "internalType": "address",
          "name": "to",
          "type": "address"
        },
        {
          "internalType": "uint256",
          "name": "tokenId",
          "type": "uint256"
        }
      ],
      "name": "approve",
      "outputs": [],
      "stateMutability": "nonpayable",
      "type": "function"
    },
    {
      "inputs": [
        {
          "internalType": "address",
          "name": "_authorAddress",
          "type": "address"
        },
        {
          "internalType": "uint8",
          "name": "_tokenUriId",
          "type": "uint8"
        }
      ],
      "name": "authenticatedMint",
      "outputs": [
        {
          "internalType": "uint256",
          "name": "",
          "type": "uint256"
        }
      ],
      "stateMutability": "nonpayable",
      "type": "function"
    },
    {
      "inputs": [
        {
          "internalType": "address",
          "name": "owner",
          "type": "address"
        }
      ],
      "name": "balanceOf",
      "outputs": [
        {
          "internalType": "uint256",
          "name": "",
          "type": "uint256"
        }
      ],
      "stateMutability": "view",
      "type": "function"
    },
    {
      "inputs": [
        {
          "internalType": "uint256",
          "name": "tokenId",
          "type": "uint256"
        }
      ],
      "name": "getApproved",
      "outputs": [
        {
          "internalType": "address",
          "name": "",
          "type": "address"
        }
      ],
      "stateMutability": "view",
      "type": "function"
    },
    {
      "inputs": [],
      "name": "getCurrentTokenId",
      "outputs": [
        {
          "internalType": "uint256",
          "name": "",
          "type": "uint256"
        }
      ],
      "stateMutability": "view",
      "type": "function"
    },
    {
      "inputs": [
        {
          "internalType": "address",
          "name": "owner",
          "type": "address"
        },
        {
          "internalType": "address",
          "name": "operator",
          "type": "address"
        }
      ],
      "name": "isApprovedForAll",
      "outputs": [
        {
          "internalType": "bool",
          "name": "",
          "type": "bool"
        }
      ],
      "stateMutability": "view",
      "type": "function"
    },
    {
      "inputs": [],
      "name": "name",
      "outputs": [
        {
          "internalType": "string",
          "name": "",
          "type": "string"
        }
      ],
      "stateMutability": "view",
      "type": "function"
    },
    {
      "inputs": [],
      "name": "owner",
      "outputs": [
        {
          "internalType": "address",
          "name": "",
          "type": "address"
        }
      ],
      "stateMutability": "view",
      "type": "function"
    },
    {
      "inputs": [
        {
          "internalType": "uint256",
          "name": "tokenId",
          "type": "uint256"
        }
      ],
      "name": "ownerOf",
      "outputs": [
        {
          "internalType": "address",
          "name": "",
          "type": "address"
        }
      ],
      "stateMutability": "view",
      "type": "function"
    },
    {
      "inputs": [],
      "name": "paymasterRoyaltyReceiver",
      "outputs": [
        {
          "internalType": "address",
          "name": "",
          "type": "address"
        }
      ],
      "stateMutability": "view",
      "type": "function"
    },
    {
      "inputs": [
        {
          "internalType": "uint256",
          "name": "_tokenId",
          "type": "uint256"
        },
        {
          "internalType": "uint256",
          "name": "value",
          "type": "uint256"
        }
      ],
      "name": "royaltyInfo",
      "outputs": [
        {
          "internalType": "address",
          "name": "receiver",
          "type": "address"
        },
        {
          "internalType": "uint256",
          "name": "royaltyAmount",
          "type": "uint256"
        }
      ],
      "stateMutability": "view",
      "type": "function"
    },
    {
      "inputs": [
        {
          "internalType": "address",
          "name": "from",
          "type": "address"
        },
        {
          "internalType": "address",
          "name": "to",
          "type": "address"
        },
        {
          "internalType": "uint256",
          "name": "tokenId",
          "type": "uint256"
        }
      ],
      "name": "safeTransferFrom",
      "outputs": [],
      "stateMutability": "nonpayable",
      "type": "function"
    },
    {
      "inputs": [
        {
          "internalType": "address",
          "name": "from",
          "type": "address"
        },
        {
          "internalType": "address",
          "name": "to",
          "type": "address"
        },
        {
          "internalType": "uint256",
          "name": "tokenId",
          "type": "uint256"
        },
        {
          "internalType": "bytes",
          "name": "_data",
          "type": "bytes"
        }
      ],
      "name": "safeTransferFrom",
      "outputs": [],
      "stateMutability": "nonpayable",
      "type": "function"
    },
    {
      "inputs": [
        {
          "internalType": "address",
          "name": "operator",
          "type": "address"
        },
        {
          "internalType": "bool",
          "name": "approved",
          "type": "bool"
        }
      ],
      "name": "setApprovalForAll",
      "outputs": [],
      "stateMutability": "nonpayable",
      "type": "function"
    },
    {
      "inputs": [
        {
          "internalType": "bytes4",
          "name": "interfaceId",
          "type": "bytes4"
        }
      ],
      "name": "supportsInterface",
      "outputs": [
        {
          "internalType": "bool",
          "name": "",
          "type": "bool"
        }
      ],
      "stateMutability": "view",
      "type": "function"
    },
    {
      "inputs": [],
      "name": "symbol",
      "outputs": [
        {
          "internalType": "string",
          "name": "",
          "type": "string"
        }
      ],
      "stateMutability": "view",
      "type": "function"
    },
    {
      "inputs": [
        {
          "internalType": "uint256",
          "name": "tokenId",
          "type": "uint256"
        }
      ],
      "name": "tokenURI",
      "outputs": [
        {
          "internalType": "string",
          "name": "",
          "type": "string"
        }
      ],
      "stateMutability": "view",
      "type": "function"
    },
    {
      "inputs": [
        {
          "internalType": "address",
          "name": "from",
          "type": "address"
        },
        {
          "internalType": "address",
          "name": "to",
          "type": "address"
        },
        {
          "internalType": "uint256",
          "name": "tokenId",
          "type": "uint256"
        }
      ],
      "name": "transferFrom",
      "outputs": [],
      "stateMutability": "nonpayable",
      "type": "function"
    },
    {
      "inputs": [
        {
          "internalType": "address",
          "name": "newOwner",
          "type": "address"
        }
      ],
      "name": "transferOwnership",
      "outputs": [],
      "stateMutability": "nonpayable",
      "type": "function"
    },
    {
      "inputs": [
        {
          "internalType": "uint96",
          "name": "_eipNumber",
          "type": "uint96"
        },
        {
          "internalType": "uint8",
          "name": "_maxMints",
          "type": "uint8"
        },
        {
          "internalType": "address",
          "name": "_authorAddress",
          "type": "address"
        },
        {
          "internalType": "string",
          "name": "_dateCreated",
          "type": "string"
        },
        {
          "internalType": "string",
          "name": "_eipDescription",
          "type": "string"
        },
        {
          "internalType": "bytes",
          "name": "_authSignature",
          "type": "bytes"
        }
      ],
      "name": "verifyMint",
      "outputs": [
        {
          "internalType": "bool",
          "name": "",
          "type": "bool"
        }
      ],
      "stateMutability": "view",
      "type": "function"
    }
  ],
  "bytecode": "0x60c06040526000600c553480156200001657600080fd5b5060405162003cc638038062003cc683398181016040528101906200003c919062000306565b60405180606001604052806024815260200162003ca2602491396040518060400160405280600381526020017f4549500000000000000000000000000000000000000000000000000000000000815250604051806020016040528060008152508260009080519060200190620000b4929190620001ac565b508160019080519060200190620000cd929190620001ac565b508060029080519060200190620000e6929190620001ac565b5050505082600760036101000a81548173ffffffffffffffffffffffffffffffffffffffff021916908373ffffffffffffffffffffffffffffffffffffffff160217905550620186a060a0818152505064174876e8006080818152505081600760006101000a81548162ffffff021916908362ffffff16021790555080600860006101000a81548173ffffffffffffffffffffffffffffffffffffffff021916908373ffffffffffffffffffffffffffffffffffffffff160217905550505050620003c7565b828054620001ba9062000391565b90600052602060002090601f016020900481019282620001de57600085556200022a565b82601f10620001f957805160ff19168380011785556200022a565b828001600101855582156200022a579182015b82811115620002295782518255916020019190600101906200020c565b5b5090506200023991906200023d565b5090565b5b80821115620002585760008160009055506001016200023e565b5090565b600080fd5b600073ffffffffffffffffffffffffffffffffffffffff82169050919050565b60006200028e8262000261565b9050919050565b620002a08162000281565b8114620002ac57600080fd5b50565b600081519050620002c08162000295565b92915050565b600062ffffff82169050919050565b620002e081620002c6565b8114620002ec57600080fd5b50565b6000815190506200030081620002d5565b92915050565b6000806000606084860312156200032257620003216200025c565b5b60006200033286828701620002af565b93505060206200034586828701620002ef565b92505060406200035886828701620002af565b9150509250925092565b7f4e487b7100000000000000000000000000000000000000000000000000000000600052602260045260246000fd5b60006002820490506001821680620003aa57607f821691505b60208210811415620003c157620003c062000362565b5b50919050565b60805160a0516138b5620003ed600039600061160c0152600061162d01526138b56000f3fe608060405234801561001057600080fd5b506004361061016c5760003560e01c806370a08231116100cd578063c87b56dd11610081578063e985e9c511610066578063e985e9c5146103e4578063ee89133614610414578063f2fde38b146104445761016c565b8063c87b56dd14610384578063cca25b13146103b45761016c565b806395d89b41116100b257806395d89b411461032e578063a22cb4651461034c578063b88d4fde146103685761016c565b806370a08231146102e05780638da5cb5b146103105761016c565b80632a55205a1161012457806342842e0e1161010957806342842e0e1461027657806356189236146102925780636352211e146102b05761016c565b80632a55205a146102275780633cac6786146102585761016c565b8063081812fc11610155578063081812fc146101bf578063095ea7b3146101ef57806323b872dd1461020b5761016c565b806301ffc9a71461017157806306fdde03146101a1575b600080fd5b61018b60048036038101906101869190612067565b610460565b60405161019891906120af565b60405180910390f35b6101a9610542565b6040516101b69190612163565b60405180910390f35b6101d960048036038101906101d491906121bb565b6105d4565b6040516101e69190612229565b60405180910390f35b61020960048036038101906102049190612270565b610659565b005b610225600480360381019061022091906122b0565b610763565b005b610241600480360381019061023c9190612303565b6107bc565b60405161024f929190612352565b60405180910390f35b61026061081c565b60405161026d9190612229565b60405180910390f35b610290600480360381019061028b91906122b0565b610842565b005b61029a610862565b6040516102a7919061237b565b60405180910390f35b6102ca60048036038101906102c591906121bb565b61086c565b6040516102d79190612229565b60405180910390f35b6102fa60048036038101906102f59190612396565b61091e565b604051610307919061237b565b60405180910390f35b6103186109d6565b6040516103259190612229565b60405180910390f35b6103366109fc565b6040516103439190612163565b60405180910390f35b610366600480360381019061036191906123ef565b610a8e565b005b610382600480360381019061037d9190612564565b610bfa565b005b61039e600480360381019061039991906121bb565b610c55565b6040516103ab9190612163565b60405180910390f35b6103ce60048036038101906103c99190612705565b610cfa565b6040516103db91906120af565b60405180910390f35b6103fe60048036038101906103f991906127e6565b610e9a565b60405161040b91906120af565b60405180910390f35b61042e60048036038101906104299190612826565b610f2e565b60405161043b919061237b565b60405180910390f35b61045e60048036038101906104599190612396565b610fd5565b005b60007f80ac58cd000000000000000000000000000000000000000000000000000000007bffffffffffffffffffffffffffffffffffffffffffffffffffffffff1916827bffffffffffffffffffffffffffffffffffffffffffffffffffffffff1916148061052b57507f5b5e139f000000000000000000000000000000000000000000000000000000007bffffffffffffffffffffffffffffffffffffffffffffffffffffffff1916827bffffffffffffffffffffffffffffffffffffffffffffffffffffffff1916145b8061053b575061053a826110e3565b5b9050919050565b60606000805461055190612895565b80601f016020809104026020016040519081016040528092919081815260200182805461057d90612895565b80156105ca5780601f1061059f576101008083540402835291602001916105ca565b820191906000526020600020905b8154815290600101906020018083116105ad57829003601f168201915b5050505050905090565b60006105df8261114d565b61061e576040517f08c379a000000000000000000000000000000000000000000000000000000000815260040161061590612939565b60405180910390fd5b6005600083815260200190815260200160002060009054906101000a900473ffffffffffffffffffffffffffffffffffffffff169050919050565b60006106648261086c565b90508073ffffffffffffffffffffffffffffffffffffffff168373ffffffffffffffffffffffffffffffffffffffff1614156106d5576040517f08c379a00000000000000000000000000000000000000000000000000000000081526004016106cc906129a5565b60405180910390fd5b8073ffffffffffffffffffffffffffffffffffffffff163373ffffffffffffffffffffffffffffffffffffffff16148061071557506107148133610e9a565b5b610754576040517f08c379a000000000000000000000000000000000000000000000000000000000815260040161074b90612a37565b60405180910390fd5b61075e83836111b9565b505050565b61076d3382611272565b6107ac576040517f08c379a00000000000000000000000000000000000000000000000000000000081526004016107a390612ac9565b60405180910390fd5b6107b7838383611350565b505050565b600080600860009054906101000a900473ffffffffffffffffffffffffffffffffffffffff169150612710600760009054906101000a900462ffffff1662ffffff16846108099190612b18565b6108139190612ba1565b90509250929050565b600860009054906101000a900473ffffffffffffffffffffffffffffffffffffffff1681565b61085d83838360405180602001604052806000815250610bfa565b505050565b6000600c54905090565b6000806003600084815260200190815260200160002060009054906101000a900473ffffffffffffffffffffffffffffffffffffffff169050600073ffffffffffffffffffffffffffffffffffffffff168173ffffffffffffffffffffffffffffffffffffffff161415610915576040517f08c379a000000000000000000000000000000000000000000000000000000000815260040161090c90612c44565b60405180910390fd5b80915050919050565b60008073ffffffffffffffffffffffffffffffffffffffff168273ffffffffffffffffffffffffffffffffffffffff16141561098f576040517f08c379a000000000000000000000000000000000000000000000000000000000815260040161098690612cd6565b60405180910390fd5b600460008373ffffffffffffffffffffffffffffffffffffffff1673ffffffffffffffffffffffffffffffffffffffff168152602001908152602001600020549050919050565b600760039054906101000a900473ffffffffffffffffffffffffffffffffffffffff1681565b606060018054610a0b90612895565b80601f0160208091040260200160405190810160405280929190818152602001828054610a3790612895565b8015610a845780601f10610a5957610100808354040283529160200191610a84565b820191906000526020600020905b815481529060010190602001808311610a6757829003601f168201915b5050505050905090565b3373ffffffffffffffffffffffffffffffffffffffff168273ffffffffffffffffffffffffffffffffffffffff161415610afd576040517f08c379a0000000000000000000000000000000000000000000000000000000008152600401610af490612d42565b60405180910390fd5b80600660003373ffffffffffffffffffffffffffffffffffffffff1673ffffffffffffffffffffffffffffffffffffffff16815260200190815260200160002060008473ffffffffffffffffffffffffffffffffffffffff1673ffffffffffffffffffffffffffffffffffffffff16815260200190815260200160002060006101000a81548160ff0219169083151502179055508173ffffffffffffffffffffffffffffffffffffffff163373ffffffffffffffffffffffffffffffffffffffff167f17307eab39ab6107e8899845ad3d59bd9653f200f220920489ca2b5937696c3183604051610bee91906120af565b60405180910390a35050565b610c043383611272565b610c43576040517f08c379a0000000000000000000000000000000000000000000000000000000008152600401610c3a90612ac9565b60405180910390fd5b610c4f848484846115ac565b50505050565b6060610c608261114d565b610c9f576040517f08c379a0000000000000000000000000000000000000000000000000000000008152600401610c9690612dae565b60405180910390fd5b6000610caa83611608565b90506000600b600085815260200190815260200160002060009054906101000a900460ff16604051602001610cdf9190612e04565b60405160208183030381529060405290508092505050919050565b60008473ffffffffffffffffffffffffffffffffffffffff163373ffffffffffffffffffffffffffffffffffffffff1614610d6a576040517f08c379a0000000000000000000000000000000000000000000000000000000008152600401610d6190612e6b565b60405180910390fd5b600760039054906101000a900473ffffffffffffffffffffffffffffffffffffffff1673ffffffffffffffffffffffffffffffffffffffff16610e77610e7189604051602001610dba9190612ec1565b60405160208183030381529060405289604051602001610dda9190612e04565b60405160208183030381529060405289604051602001610dfa9190612f24565b60405160208183030381529060405289604051602001610e1a9190612f7b565b60405160208183030381529060405289604051602001610e3a9190612f7b565b604051602081830303815290604052604051602001610e5d959493929190612fd9565b604051602081830303815290604052611668565b846116a3565b73ffffffffffffffffffffffffffffffffffffffff161490509695505050505050565b6000600660008473ffffffffffffffffffffffffffffffffffffffff1673ffffffffffffffffffffffffffffffffffffffff16815260200190815260200160002060008373ffffffffffffffffffffffffffffffffffffffff1673ffffffffffffffffffffffffffffffffffffffff16815260200190815260200160002060009054906101000a900460ff16905092915050565b600080610f396116ca565b9050836009600083815260200190815260200160002060006101000a81548173ffffffffffffffffffffffffffffffffffffffff021916908373ffffffffffffffffffffffffffffffffffffffff160217905550610f9781856116e0565b82600b600083815260200190815260200160002060006101000a81548160ff021916908360ff160217905550610fcb6116fe565b8091505092915050565b3373ffffffffffffffffffffffffffffffffffffffff16600760039054906101000a900473ffffffffffffffffffffffffffffffffffffffff1673ffffffffffffffffffffffffffffffffffffffff1614611065576040517f08c379a000000000000000000000000000000000000000000000000000000000815260040161105c90613070565b60405180910390fd5b600073ffffffffffffffffffffffffffffffffffffffff168173ffffffffffffffffffffffffffffffffffffffff16141561109f57600080fd5b80600760036101000a81548173ffffffffffffffffffffffffffffffffffffffff021916908373ffffffffffffffffffffffffffffffffffffffff16021790555050565b60007f01ffc9a7000000000000000000000000000000000000000000000000000000007bffffffffffffffffffffffffffffffffffffffffffffffffffffffff1916827bffffffffffffffffffffffffffffffffffffffffffffffffffffffff1916149050919050565b60008073ffffffffffffffffffffffffffffffffffffffff166003600084815260200190815260200160002060009054906101000a900473ffffffffffffffffffffffffffffffffffffffff1673ffffffffffffffffffffffffffffffffffffffff1614159050919050565b816005600083815260200190815260200160002060006101000a81548173ffffffffffffffffffffffffffffffffffffffff021916908373ffffffffffffffffffffffffffffffffffffffff160217905550808273ffffffffffffffffffffffffffffffffffffffff1661122c8361086c565b73ffffffffffffffffffffffffffffffffffffffff167f8c5be1e5ebec7d5bd14f71427d1e84f3dd0314c0f7b2291e5b200ac8c7c3b92560405160405180910390a45050565b600061127d8261114d565b6112bc576040517f08c379a00000000000000000000000000000000000000000000000000000000081526004016112b390613102565b60405180910390fd5b60006112c78361086c565b90508073ffffffffffffffffffffffffffffffffffffffff168473ffffffffffffffffffffffffffffffffffffffff16148061133657508373ffffffffffffffffffffffffffffffffffffffff1661131e846105d4565b73ffffffffffffffffffffffffffffffffffffffff16145b8061134757506113468185610e9a565b5b91505092915050565b8273ffffffffffffffffffffffffffffffffffffffff166113708261086c565b73ffffffffffffffffffffffffffffffffffffffff16146113c6576040517f08c379a00000000000000000000000000000000000000000000000000000000081526004016113bd90613194565b60405180910390fd5b600073ffffffffffffffffffffffffffffffffffffffff168273ffffffffffffffffffffffffffffffffffffffff161415611436576040517f08c379a000000000000000000000000000000000000000000000000000000000815260040161142d90613200565b60405180910390fd5b611441838383611715565b61144c6000826111b9565b6001600460008573ffffffffffffffffffffffffffffffffffffffff1673ffffffffffffffffffffffffffffffffffffffff168152602001908152602001600020600082825461149c9190613220565b925050819055506001600460008473ffffffffffffffffffffffffffffffffffffffff1673ffffffffffffffffffffffffffffffffffffffff16815260200190815260200160002060008282546114f39190613254565b92505081905550816003600083815260200190815260200160002060006101000a81548173ffffffffffffffffffffffffffffffffffffffff021916908373ffffffffffffffffffffffffffffffffffffffff160217905550808273ffffffffffffffffffffffffffffffffffffffff168473ffffffffffffffffffffffffffffffffffffffff167fddf252ad1be2c89b69c2b068fc378daa952ba7f163c4a11628f55a4df523b3ef60405160405180910390a4505050565b6115b7848484611350565b6115c38484848461171a565b611602576040517f08c379a00000000000000000000000000000000000000000000000000000000081526004016115f99061331c565b60405180910390fd5b50505050565b60007f00000000000000000000000000000000000000000000000000000000000000007f0000000000000000000000000000000000000000000000000000000000000000836116579190613220565b6116619190612ba1565b9050919050565b6000611674825161189b565b82604051602001611686929190613388565b604051602081830303815290604052805190602001209050919050565b60008060006116b285856119fc565b915091506116bf81611a7f565b819250505092915050565b60006001600c546116db9190613254565b905090565b6116fa818360405180602001604052806000815250611c54565b5050565b6001600c5461170d9190613254565b600c81905550565b505050565b600061173b8473ffffffffffffffffffffffffffffffffffffffff16611caf565b1561188e578373ffffffffffffffffffffffffffffffffffffffff1663150b7a02338786866040518563ffffffff1660e01b815260040161177f9493929190613401565b6020604051808303816000875af19250505080156117bb57506040513d601f19601f820116820180604052508101906117b89190613462565b60015b61183e573d80600081146117eb576040519150601f19603f3d011682016040523d82523d6000602084013e6117f0565b606091505b50600081511415611836576040517f08c379a000000000000000000000000000000000000000000000000000000000815260040161182d9061331c565b60405180910390fd5b805181602001fd5b63150b7a0260e01b7bffffffffffffffffffffffffffffffffffffffffffffffffffffffff1916817bffffffffffffffffffffffffffffffffffffffffffffffffffffffff191614915050611893565b600190505b949350505050565b606060008214156118e3576040518060400160405280600181526020017f300000000000000000000000000000000000000000000000000000000000000081525090506119f7565b600082905060005b600082146119155780806118fe9061348f565b915050600a8261190e9190612ba1565b91506118eb565b60008167ffffffffffffffff81111561193157611930612439565b5b6040519080825280601f01601f1916602001820160405280156119635781602001600182028036833780820191505090505b5090505b600085146119f05760018261197c9190613220565b9150600a8561198b91906134d8565b60306119979190613254565b60f81b8183815181106119ad576119ac613509565b5b60200101907effffffffffffffffffffffffffffffffffffffffffffffffffffffffffffff1916908160001a905350600a856119e99190612ba1565b9450611967565b8093505050505b919050565b600080604183511415611a3e5760008060006020860151925060408601519150606086015160001a9050611a3287828585611cd2565b94509450505050611a78565b604083511415611a6f576000806020850151915060408501519050611a64868383611ddf565b935093505050611a78565b60006002915091505b9250929050565b60006004811115611a9357611a92613538565b5b816004811115611aa657611aa5613538565b5b1415611ab157611c51565b60016004811115611ac557611ac4613538565b5b816004811115611ad857611ad7613538565b5b1415611b19576040517f08c379a0000000000000000000000000000000000000000000000000000000008152600401611b10906135b3565b60405180910390fd5b60026004811115611b2d57611b2c613538565b5b816004811115611b4057611b3f613538565b5b1415611b81576040517f08c379a0000000000000000000000000000000000000000000000000000000008152600401611b789061361f565b60405180910390fd5b60036004811115611b9557611b94613538565b5b816004811115611ba857611ba7613538565b5b1415611be9576040517f08c379a0000000000000000000000000000000000000000000000000000000008152600401611be0906136b1565b60405180910390fd5b600480811115611bfc57611bfb613538565b5b816004811115611c0f57611c0e613538565b5b1415611c50576040517f08c379a0000000000000000000000000000000000000000000000000000000008152600401611c4790613743565b60405180910390fd5b5b50565b611c5e8383611e2d565b611c6b600084848461171a565b611caa576040517f08c379a0000000000000000000000000000000000000000000000000000000008152600401611ca19061331c565b60405180910390fd5b505050565b6000808273ffffffffffffffffffffffffffffffffffffffff163b119050919050565b6000807f7fffffffffffffffffffffffffffffff5d576e7357a4501ddfe92f46681b20a08360001c1115611d0d576000600391509150611dd6565b601b8560ff1614158015611d255750601c8560ff1614155b15611d37576000600491509150611dd6565b600060018787878760405160008152602001604052604051611d5c949392919061378b565b6020604051602081039080840390855afa158015611d7e573d6000803e3d6000fd5b505050602060405103519050600073ffffffffffffffffffffffffffffffffffffffff168173ffffffffffffffffffffffffffffffffffffffff161415611dcd57600060019250925050611dd6565b80600092509250505b94509492505050565b6000806000807f7fffffffffffffffffffffffffffffffffffffffffffffffffffffffffffffff85169150601b8560ff1c019050611e1f87828885611cd2565b935093505050935093915050565b600073ffffffffffffffffffffffffffffffffffffffff168273ffffffffffffffffffffffffffffffffffffffff161415611e9d576040517f08c379a0000000000000000000000000000000000000000000000000000000008152600401611e949061381c565b60405180910390fd5b611ea68161114d565b15611ee6576040517f08c379a0000000000000000000000000000000000000000000000000000000008152600401611edd90613888565b60405180910390fd5b611ef260008383611715565b6001600460008473ffffffffffffffffffffffffffffffffffffffff1673ffffffffffffffffffffffffffffffffffffffff1681526020019081526020016000206000828254611f429190613254565b92505081905550816003600083815260200190815260200160002060006101000a81548173ffffffffffffffffffffffffffffffffffffffff021916908373ffffffffffffffffffffffffffffffffffffffff160217905550808273ffffffffffffffffffffffffffffffffffffffff16600073ffffffffffffffffffffffffffffffffffffffff167fddf252ad1be2c89b69c2b068fc378daa952ba7f163c4a11628f55a4df523b3ef60405160405180910390a45050565b6000604051905090565b600080fd5b600080fd5b60007fffffffff0000000000000000000000000000000000000000000000000000000082169050919050565b6120448161200f565b811461204f57600080fd5b50565b6000813590506120618161203b565b92915050565b60006020828403121561207d5761207c612005565b5b600061208b84828501612052565b91505092915050565b60008115159050919050565b6120a981612094565b82525050565b60006020820190506120c460008301846120a0565b92915050565b600081519050919050565b600082825260208201905092915050565b60005b838110156121045780820151818401526020810190506120e9565b83811115612113576000848401525b50505050565b6000601f19601f8301169050919050565b6000612135826120ca565b61213f81856120d5565b935061214f8185602086016120e6565b61215881612119565b840191505092915050565b6000602082019050818103600083015261217d818461212a565b905092915050565b6000819050919050565b61219881612185565b81146121a357600080fd5b50565b6000813590506121b58161218f565b92915050565b6000602082840312156121d1576121d0612005565b5b60006121df848285016121a6565b91505092915050565b600073ffffffffffffffffffffffffffffffffffffffff82169050919050565b6000612213826121e8565b9050919050565b61222381612208565b82525050565b600060208201905061223e600083018461221a565b92915050565b61224d81612208565b811461225857600080fd5b50565b60008135905061226a81612244565b92915050565b6000806040838503121561228757612286612005565b5b60006122958582860161225b565b92505060206122a6858286016121a6565b9150509250929050565b6000806000606084860312156122c9576122c8612005565b5b60006122d78682870161225b565b93505060206122e88682870161225b565b92505060406122f9868287016121a6565b9150509250925092565b6000806040838503121561231a57612319612005565b5b6000612328858286016121a6565b9250506020612339858286016121a6565b9150509250929050565b61234c81612185565b82525050565b6000604082019050612367600083018561221a565b6123746020830184612343565b9392505050565b60006020820190506123906000830184612343565b92915050565b6000602082840312156123ac576123ab612005565b5b60006123ba8482850161225b565b91505092915050565b6123cc81612094565b81146123d757600080fd5b50565b6000813590506123e9816123c3565b92915050565b6000806040838503121561240657612405612005565b5b60006124148582860161225b565b9250506020612425858286016123da565b9150509250929050565b600080fd5b600080fd5b7f4e487b7100000000000000000000000000000000000000000000000000000000600052604160045260246000fd5b61247182612119565b810181811067ffffffffffffffff821117156124905761248f612439565b5b80604052505050565b60006124a3611ffb565b90506124af8282612468565b919050565b600067ffffffffffffffff8211156124cf576124ce612439565b5b6124d882612119565b9050602081019050919050565b82818337600083830152505050565b6000612507612502846124b4565b612499565b90508281526020810184848401111561252357612522612434565b5b61252e8482856124e5565b509392505050565b600082601f83011261254b5761254a61242f565b5b813561255b8482602086016124f4565b91505092915050565b6000806000806080858703121561257e5761257d612005565b5b600061258c8782880161225b565b945050602061259d8782880161225b565b93505060406125ae878288016121a6565b925050606085013567ffffffffffffffff8111156125cf576125ce61200a565b5b6125db87828801612536565b91505092959194509250565b60006bffffffffffffffffffffffff82169050919050565b612608816125e7565b811461261357600080fd5b50565b600081359050612625816125ff565b92915050565b600060ff82169050919050565b6126418161262b565b811461264c57600080fd5b50565b60008135905061265e81612638565b92915050565b600067ffffffffffffffff82111561267f5761267e612439565b5b61268882612119565b9050602081019050919050565b60006126a86126a384612664565b612499565b9050828152602081018484840111156126c4576126c3612434565b5b6126cf8482856124e5565b509392505050565b600082601f8301126126ec576126eb61242f565b5b81356126fc848260208601612695565b91505092915050565b60008060008060008060c0878903121561272257612721612005565b5b600061273089828a01612616565b965050602061274189828a0161264f565b955050604061275289828a0161225b565b945050606087013567ffffffffffffffff8111156127735761277261200a565b5b61277f89828a016126d7565b935050608087013567ffffffffffffffff8111156127a05761279f61200a565b5b6127ac89828a016126d7565b92505060a087013567ffffffffffffffff8111156127cd576127cc61200a565b5b6127d989828a01612536565b9150509295509295509295565b600080604083850312156127fd576127fc612005565b5b600061280b8582860161225b565b925050602061281c8582860161225b565b9150509250929050565b6000806040838503121561283d5761283c612005565b5b600061284b8582860161225b565b925050602061285c8582860161264f565b9150509250929050565b7f4e487b7100000000000000000000000000000000000000000000000000000000600052602260045260246000fd5b600060028204905060018216806128ad57607f821691505b602082108114156128c1576128c0612866565b5b50919050565b7f617070726f76656420717565727920666f72206e6f6e6578697374656e74207460008201527f6f6b656e00000000000000000000000000000000000000000000000000000000602082015250565b60006129236024836120d5565b915061292e826128c7565b604082019050919050565b6000602082019050818103600083015261295281612916565b9050919050565b7f617070726f76616c20746f2063757272656e74206f776e657200000000000000600082015250565b600061298f6019836120d5565b915061299a82612959565b602082019050919050565b600060208201905081810360008301526129be81612982565b9050919050565b7f617070726f76652063616c6c6572206973206e6f74206f776e6572206e6f722060008201527f617070726f76656420666f7220616c6c00000000000000000000000000000000602082015250565b6000612a216030836120d5565b9150612a2c826129c5565b604082019050919050565b60006020820190508181036000830152612a5081612a14565b9050919050565b7f7472616e736665722063616c6c6572206973206e6f74206f776e6572206e6f7260008201527f20617070726f7665640000000000000000000000000000000000000000000000602082015250565b6000612ab36029836120d5565b9150612abe82612a57565b604082019050919050565b60006020820190508181036000830152612ae281612aa6565b9050919050565b7f4e487b7100000000000000000000000000000000000000000000000000000000600052601160045260246000fd5b6000612b2382612185565b9150612b2e83612185565b9250817fffffffffffffffffffffffffffffffffffffffffffffffffffffffffffffffff0483118215151615612b6757612b66612ae9565b5b828202905092915050565b7f4e487b7100000000000000000000000000000000000000000000000000000000600052601260045260246000fd5b6000612bac82612185565b9150612bb783612185565b925082612bc757612bc6612b72565b5b828204905092915050565b7f6f776e657220717565727920666f72206e6f6e6578697374656e7420746f6b6560008201527f6e00000000000000000000000000000000000000000000000000000000000000602082015250565b6000612c2e6021836120d5565b9150612c3982612bd2565b604082019050919050565b60006020820190508181036000830152612c5d81612c21565b9050919050565b7f62616c616e636520717565727920666f7220746865207a65726f20616464726560008201527f7373000000000000000000000000000000000000000000000000000000000000602082015250565b6000612cc06022836120d5565b9150612ccb82612c64565b604082019050919050565b60006020820190508181036000830152612cef81612cb3565b9050919050565b7f617070726f766520746f2063616c6c6572000000000000000000000000000000600082015250565b6000612d2c6011836120d5565b9150612d3782612cf6565b602082019050919050565b60006020820190508181036000830152612d5b81612d1f565b9050919050565b7f4e6f6e6578697374656e7420746f6b656e000000000000000000000000000000600082015250565b6000612d986011836120d5565b9150612da382612d62565b602082019050919050565b60006020820190508181036000830152612dc781612d8b565b9050919050565b60008160f81b9050919050565b6000612de682612dce565b9050919050565b612dfe612df98261262b565b612ddb565b82525050565b6000612e108284612ded565b60018201915081905092915050565b7f57726f6e672073656e6465720000000000000000000000000000000000000000600082015250565b6000612e55600c836120d5565b9150612e6082612e1f565b602082019050919050565b60006020820190508181036000830152612e8481612e48565b9050919050565b60008160a01b9050919050565b6000612ea382612e8b565b9050919050565b612ebb612eb6826125e7565b612e98565b82525050565b6000612ecd8284612eaa565b600c8201915081905092915050565b60008160601b9050919050565b6000612ef482612edc565b9050919050565b6000612f0682612ee9565b9050919050565b612f1e612f1982612208565b612efb565b82525050565b6000612f308284612f0d565b60148201915081905092915050565b600081905092915050565b6000612f55826120ca565b612f5f8185612f3f565b9350612f6f8185602086016120e6565b80840191505092915050565b6000612f878284612f4a565b915081905092915050565b600081519050919050565b600081905092915050565b6000612fb382612f92565b612fbd8185612f9d565b9350612fcd8185602086016120e6565b80840191505092915050565b6000612fe58288612fa8565b9150612ff18287612fa8565b9150612ffd8286612fa8565b91506130098285612fa8565b91506130158284612fa8565b91508190509695505050505050565b7f556e617574686f72697a65640000000000000000000000000000000000000000600082015250565b600061305a600c836120d5565b915061306582613024565b602082019050919050565b600060208201905081810360008301526130898161304d565b9050919050565b7f6f70657261746f7220717565727920666f72206e6f6e6578697374656e74207460008201527f6f6b656e00000000000000000000000000000000000000000000000000000000602082015250565b60006130ec6024836120d5565b91506130f782613090565b604082019050919050565b6000602082019050818103600083015261311b816130df565b9050919050565b7f7472616e73666572206f6620746f6b656e2074686174206973206e6f74206f7760008201527f6e00000000000000000000000000000000000000000000000000000000000000602082015250565b600061317e6021836120d5565b915061318982613122565b604082019050919050565b600060208201905081810360008301526131ad81613171565b9050919050565b7f7472616e7366657220746f20746865207a65726f206164647265737300000000600082015250565b60006131ea601c836120d5565b91506131f5826131b4565b602082019050919050565b60006020820190508181036000830152613219816131dd565b9050919050565b600061322b82612185565b915061323683612185565b92508282101561324957613248612ae9565b5b828203905092915050565b600061325f82612185565b915061326a83612185565b9250827fffffffffffffffffffffffffffffffffffffffffffffffffffffffffffffffff0382111561329f5761329e612ae9565b5b828201905092915050565b7f7472616e7366657220746f206e6f6e204552433732315265636569766572206960008201527f6d706c656d656e74657200000000000000000000000000000000000000000000602082015250565b6000613306602a836120d5565b9150613311826132aa565b604082019050919050565b60006020820190508181036000830152613335816132f9565b9050919050565b7f19457468657265756d205369676e6564204d6573736167653a0a000000000000600082015250565b6000613372601a83612f3f565b915061337d8261333c565b601a82019050919050565b600061339382613365565b915061339f8285612f4a565b91506133ab8284612fa8565b91508190509392505050565b600082825260208201905092915050565b60006133d382612f92565b6133dd81856133b7565b93506133ed8185602086016120e6565b6133f681612119565b840191505092915050565b6000608082019050613416600083018761221a565b613423602083018661221a565b6134306040830185612343565b818103606083015261344281846133c8565b905095945050505050565b60008151905061345c8161203b565b92915050565b60006020828403121561347857613477612005565b5b60006134868482850161344d565b91505092915050565b600061349a82612185565b91507fffffffffffffffffffffffffffffffffffffffffffffffffffffffffffffffff8214156134cd576134cc612ae9565b5b600182019050919050565b60006134e382612185565b91506134ee83612185565b9250826134fe576134fd612b72565b5b828206905092915050565b7f4e487b7100000000000000000000000000000000000000000000000000000000600052603260045260246000fd5b7f4e487b7100000000000000000000000000000000000000000000000000000000600052602160045260246000fd5b7f45434453413a20696e76616c6964207369676e61747572650000000000000000600082015250565b600061359d6018836120d5565b91506135a882613567565b602082019050919050565b600060208201905081810360008301526135cc81613590565b9050919050565b7f45434453413a20696e76616c6964207369676e6174757265206c656e67746800600082015250565b6000613609601f836120d5565b9150613614826135d3565b602082019050919050565b60006020820190508181036000830152613638816135fc565b9050919050565b7f45434453413a20696e76616c6964207369676e6174757265202773272076616c60008201527f7565000000000000000000000000000000000000000000000000000000000000602082015250565b600061369b6022836120d5565b91506136a68261363f565b604082019050919050565b600060208201905081810360008301526136ca8161368e565b9050919050565b7f45434453413a20696e76616c6964207369676e6174757265202776272076616c60008201527f7565000000000000000000000000000000000000000000000000000000000000602082015250565b600061372d6022836120d5565b9150613738826136d1565b604082019050919050565b6000602082019050818103600083015261375c81613720565b9050919050565b6000819050919050565b61377681613763565b82525050565b6137858161262b565b82525050565b60006080820190506137a0600083018761376d565b6137ad602083018661377c565b6137ba604083018561376d565b6137c7606083018461376d565b95945050505050565b7f6d696e7420746f20746865207a65726f20616464726573730000000000000000600082015250565b60006138066018836120d5565b9150613811826137d0565b602082019050919050565b60006020820190508181036000830152613835816137f9565b9050919050565b7f746f6b656e20616c7265616479206d696e746564000000000000000000000000600082015250565b60006138726014836120d5565b915061387d8261383c565b602082019050919050565b600060208201905081810360008301526138a181613865565b905091905056fea164736f6c634300080c000a457468657265756d20496d70726f76656d656e742050726f706f73616c202d204e465473",
  "linkReferences": {},
  "deployedLinkReferences": {}
}