{
  "_format": "hh-sol-artifact-1",
  "contractName": "PaymasterNft",
  "sourceName": "contracts/PaymasterNft.sol",
  "abi": [
    {
      "inputs": [],
      "stateMutability": "nonpayable",
      "type": "constructor"
    },
    {
      "anonymous": false,
      "inputs": [
        {
          "indexed": true,
          "internalType": "address",
          "name": "owner",
          "type": "address"
        },
        {
          "indexed": true,
          "internalType": "address",
          "name": "approved",
          "type": "address"
        },
        {
          "indexed": true,
          "internalType": "uint256",
          "name": "tokenId",
          "type": "uint256"
        }
      ],
      "name": "Approval",
      "type": "event"
    },
    {
      "anonymous": false,
      "inputs": [
        {
          "indexed": true,
          "internalType": "address",
          "name": "owner",
          "type": "address"
        },
        {
          "indexed": true,
          "internalType": "address",
          "name": "operator",
          "type": "address"
        },
        {
          "indexed": false,
          "internalType": "bool",
          "name": "approved",
          "type": "bool"
        }
      ],
      "name": "ApprovalForAll",
      "type": "event"
    },
    {
      "anonymous": false,
      "inputs": [
        {
          "indexed": true,
          "internalType": "address",
          "name": "from",
          "type": "address"
        },
        {
          "indexed": true,
          "internalType": "address",
          "name": "to",
          "type": "address"
        },
        {
          "indexed": true,
          "internalType": "uint256",
          "name": "tokenId",
          "type": "uint256"
        }
      ],
      "name": "Transfer",
      "type": "event"
    },
    {
      "inputs": [
        {
          "internalType": "uint256",
          "name": "",
          "type": "uint256"
        }
      ],
      "name": "_tokenURIs",
      "outputs": [
        {
          "internalType": "string",
          "name": "",
          "type": "string"
        }
      ],
      "stateMutability": "view",
      "type": "function"
    },
    {
      "inputs": [
        {
          "internalType": "address",
          "name": "to",
          "type": "address"
        },
        {
          "internalType": "uint256",
          "name": "tokenId",
          "type": "uint256"
        }
      ],
      "name": "approve",
      "outputs": [],
      "stateMutability": "nonpayable",
      "type": "function"
    },
    {
      "inputs": [
        {
          "internalType": "address",
          "name": "player",
          "type": "address"
        },
        {
          "internalType": "string",
          "name": "tokenURI",
          "type": "string"
        }
      ],
      "name": "awardItem",
      "outputs": [
        {
          "internalType": "uint256",
          "name": "",
          "type": "uint256"
        }
      ],
      "stateMutability": "nonpayable",
      "type": "function"
    },
    {
      "inputs": [
        {
          "internalType": "address",
          "name": "owner",
          "type": "address"
        }
      ],
      "name": "balanceOf",
      "outputs": [
        {
          "internalType": "uint256",
          "name": "",
          "type": "uint256"
        }
      ],
      "stateMutability": "view",
      "type": "function"
    },
    {
      "inputs": [
        {
          "internalType": "uint256",
          "name": "tokenId",
          "type": "uint256"
        }
      ],
      "name": "getApproved",
      "outputs": [
        {
          "internalType": "address",
          "name": "",
          "type": "address"
        }
      ],
      "stateMutability": "view",
      "type": "function"
    },
    {
      "inputs": [
        {
          "internalType": "address",
          "name": "owner",
          "type": "address"
        },
        {
          "internalType": "address",
          "name": "operator",
          "type": "address"
        }
      ],
      "name": "isApprovedForAll",
      "outputs": [
        {
          "internalType": "bool",
          "name": "",
          "type": "bool"
        }
      ],
      "stateMutability": "view",
      "type": "function"
    },
    {
      "inputs": [],
      "name": "name",
      "outputs": [
        {
          "internalType": "string",
          "name": "",
          "type": "string"
        }
      ],
      "stateMutability": "view",
      "type": "function"
    },
    {
      "inputs": [
        {
          "internalType": "uint256",
          "name": "tokenId",
          "type": "uint256"
        }
      ],
      "name": "ownerOf",
      "outputs": [
        {
          "internalType": "address",
          "name": "",
          "type": "address"
        }
      ],
      "stateMutability": "view",
      "type": "function"
    },
    {
      "inputs": [
        {
          "internalType": "address",
          "name": "from",
          "type": "address"
        },
        {
          "internalType": "address",
          "name": "to",
          "type": "address"
        },
        {
          "internalType": "uint256",
          "name": "tokenId",
          "type": "uint256"
        }
      ],
      "name": "safeTransferFrom",
      "outputs": [],
      "stateMutability": "nonpayable",
      "type": "function"
    },
    {
      "inputs": [
        {
          "internalType": "address",
          "name": "from",
          "type": "address"
        },
        {
          "internalType": "address",
          "name": "to",
          "type": "address"
        },
        {
          "internalType": "uint256",
          "name": "tokenId",
          "type": "uint256"
        },
        {
          "internalType": "bytes",
          "name": "data",
          "type": "bytes"
        }
      ],
      "name": "safeTransferFrom",
      "outputs": [],
      "stateMutability": "nonpayable",
      "type": "function"
    },
    {
      "inputs": [
        {
          "internalType": "address",
          "name": "operator",
          "type": "address"
        },
        {
          "internalType": "bool",
          "name": "approved",
          "type": "bool"
        }
      ],
      "name": "setApprovalForAll",
      "outputs": [],
      "stateMutability": "nonpayable",
      "type": "function"
    },
    {
      "inputs": [
        {
          "internalType": "bytes4",
          "name": "interfaceId",
          "type": "bytes4"
        }
      ],
      "name": "supportsInterface",
      "outputs": [
        {
          "internalType": "bool",
          "name": "",
          "type": "bool"
        }
      ],
      "stateMutability": "view",
      "type": "function"
    },
    {
      "inputs": [],
      "name": "symbol",
      "outputs": [
        {
          "internalType": "string",
          "name": "",
          "type": "string"
        }
      ],
      "stateMutability": "view",
      "type": "function"
    },
    {
      "inputs": [
        {
          "internalType": "uint256",
          "name": "tokenId",
          "type": "uint256"
        }
      ],
      "name": "tokenURI",
      "outputs": [
        {
          "internalType": "string",
          "name": "",
          "type": "string"
        }
      ],
      "stateMutability": "view",
      "type": "function"
    },
    {
      "inputs": [
        {
          "internalType": "address",
          "name": "from",
          "type": "address"
        },
        {
          "internalType": "address",
          "name": "to",
          "type": "address"
        },
        {
          "internalType": "uint256",
          "name": "tokenId",
          "type": "uint256"
        }
      ],
      "name": "transferFrom",
      "outputs": [],
      "stateMutability": "nonpayable",
      "type": "function"
    }
  ],
  "bytecode": "0x60806040523480156200001157600080fd5b506040518060400160405280600881526020016747616d654974656d60c01b8152506040518060400160405280600381526020016249544d60e81b81525081600090816200006091906200011d565b5060016200006f82826200011d565b505050620001e9565b634e487b7160e01b600052604160045260246000fd5b600181811c90821680620000a357607f821691505b602082108103620000c457634e487b7160e01b600052602260045260246000fd5b50919050565b601f8211156200011857600081815260208120601f850160051c81016020861015620000f35750805b601f850160051c820191505b818110156200011457828155600101620000ff565b5050505b505050565b81516001600160401b0381111562000139576200013962000078565b62000151816200014a84546200008e565b84620000ca565b602080601f831160018114620001895760008415620001705750858301515b600019600386901b1c1916600185901b17855562000114565b600085815260208120601f198616915b82811015620001ba5788860151825594840194600190910190840162000199565b5085821015620001d95787850151600019600388901b60f8161c191681555b5050505050600190811b01905550565b61163380620001f96000396000f3fe608060405234801561001057600080fd5b50600436106100f55760003560e01c80636352211e11610097578063b88d4fde11610066578063b88d4fde146101ff578063c87b56dd14610212578063cf37834314610225578063e985e9c51461023857600080fd5b80636352211e146101b057806370a08231146101c357806395d89b41146101e4578063a22cb465146101ec57600080fd5b8063095ea7b3116100d3578063095ea7b3146101625780630bb78ec11461017757806323b872dd1461018a57806342842e0e1461019d57600080fd5b806301ffc9a7146100fa57806306fdde0314610122578063081812fc14610137575b600080fd5b61010d610108366004611147565b610274565b60405190151581526020015b60405180910390f35b61012a6102c6565b60405161011991906111b4565b61014a6101453660046111c7565b610358565b6040516001600160a01b039091168152602001610119565b6101756101703660046111fc565b61037f565b005b61012a6101853660046111c7565b610499565b610175610198366004611226565b610533565b6101756101ab366004611226565b6105aa565b61014a6101be3660046111c7565b6105c5565b6101d66101d1366004611262565b61062a565b604051908152602001610119565b61012a6106c4565b6101756101fa36600461127d565b6106d3565b61017561020d366004611345565b6106e2565b61012a6102203660046111c7565b610760565b6101d66102333660046113c1565b6107d4565b61010d610246366004611423565b6001600160a01b03918216600090815260056020908152604080832093909416825291909152205460ff1690565b60006001600160e01b031982166380ac58cd60e01b14806102a557506001600160e01b03198216635b5e139f60e01b145b806102c057506301ffc9a760e01b6001600160e01b03198316145b92915050565b6060600080546102d590611456565b80601f016020809104026020016040519081016040528092919081815260200182805461030190611456565b801561034e5780601f106103235761010080835404028352916020019161034e565b820191906000526020600020905b81548152906001019060200180831161033157829003601f168201915b5050505050905090565b60006103638261081b565b506000908152600460205260409020546001600160a01b031690565b600061038a826105c5565b9050806001600160a01b0316836001600160a01b0316036103fc5760405162461bcd60e51b815260206004820152602160248201527f4552433732313a20617070726f76616c20746f2063757272656e74206f776e656044820152603960f91b60648201526084015b60405180910390fd5b336001600160a01b038216148061041857506104188133610246565b61048a5760405162461bcd60e51b815260206004820152603d60248201527f4552433732313a20617070726f76652063616c6c6572206973206e6f7420746f60448201527f6b656e206f776e6572206f7220617070726f76656420666f7220616c6c00000060648201526084016103f3565b6104948383610882565b505050565b600660205260009081526040902080546104b290611456565b80601f01602080910402602001604051908101604052809291908181526020018280546104de90611456565b801561052b5780601f106105005761010080835404028352916020019161052b565b820191906000526020600020905b81548152906001019060200180831161050e57829003601f168201915b505050505081565b61053d33826108fd565b61059f5760405162461bcd60e51b815260206004820152602d60248201527f4552433732313a2063616c6c6572206973206e6f7420746f6b656e206f776e6560448201526c1c881bdc88185c1c1c9bdd9959609a1b60648201526084016103f3565b61049483838361097c565b610494838383604051806020016040528060008152506106e2565b6000818152600260205260408120546001600160a01b0316806102c05760405162461bcd60e51b815260206004820152601860248201527f4552433732313a20696e76616c696420746f6b656e204944000000000000000060448201526064016103f3565b60006001600160a01b0382166106a85760405162461bcd60e51b815260206004820152602960248201527f4552433732313a2061646472657373207a65726f206973206e6f74206120766160448201527f6c6964206f776e6572000000000000000000000000000000000000000000000060648201526084016103f3565b506001600160a01b031660009081526003602052604090205490565b6060600180546102d590611456565b6106de338383610b69565b5050565b6106ec33836108fd565b61074e5760405162461bcd60e51b815260206004820152602d60248201527f4552433732313a2063616c6c6572206973206e6f7420746f6b656e206f776e6560448201526c1c881bdc88185c1c1c9bdd9959609a1b60648201526084016103f3565b61075a84848484610c37565b50505050565b606061076b8261081b565b600061078260408051602081019091526000815290565b905060008151116107a257604051806020016040528060008152506107cd565b806107ac84610cc0565b6040516020016107bd929190611490565b6040516020818303038152906040525b9392505050565b60006107e4600780546001019055565b60006107ef60075490565b90506107fb8482610d60565b6000818152600660205260409020610813848261150d565b509392505050565b6000818152600260205260409020546001600160a01b031661087f5760405162461bcd60e51b815260206004820152601860248201527f4552433732313a20696e76616c696420746f6b656e204944000000000000000060448201526064016103f3565b50565b6000818152600460205260409020805473ffffffffffffffffffffffffffffffffffffffff19166001600160a01b03841690811790915581906108c4826105c5565b6001600160a01b03167f8c5be1e5ebec7d5bd14f71427d1e84f3dd0314c0f7b2291e5b200ac8c7c3b92560405160405180910390a45050565b600080610909836105c5565b9050806001600160a01b0316846001600160a01b0316148061095057506001600160a01b0380821660009081526005602090815260408083209388168352929052205460ff165b806109745750836001600160a01b031661096984610358565b6001600160a01b0316145b949350505050565b826001600160a01b031661098f826105c5565b6001600160a01b0316146109f35760405162461bcd60e51b815260206004820152602560248201527f4552433732313a207472616e736665722066726f6d20696e636f72726563742060448201526437bbb732b960d91b60648201526084016103f3565b6001600160a01b038216610a555760405162461bcd60e51b8152602060048201526024808201527f4552433732313a207472616e7366657220746f20746865207a65726f206164646044820152637265737360e01b60648201526084016103f3565b826001600160a01b0316610a68826105c5565b6001600160a01b031614610acc5760405162461bcd60e51b815260206004820152602560248201527f4552433732313a207472616e736665722066726f6d20696e636f72726563742060448201526437bbb732b960d91b60648201526084016103f3565b6000818152600460209081526040808320805473ffffffffffffffffffffffffffffffffffffffff199081169091556001600160a01b0387811680865260038552838620805460001901905590871680865283862080546001019055868652600290945282852080549092168417909155905184937fddf252ad1be2c89b69c2b068fc378daa952ba7f163c4a11628f55a4df523b3ef91a4505050565b816001600160a01b0316836001600160a01b031603610bca5760405162461bcd60e51b815260206004820152601960248201527f4552433732313a20617070726f766520746f2063616c6c65720000000000000060448201526064016103f3565b6001600160a01b03838116600081815260056020908152604080832094871680845294825291829020805460ff191686151590811790915591519182527f17307eab39ab6107e8899845ad3d59bd9653f200f220920489ca2b5937696c31910160405180910390a3505050565b610c4284848461097c565b610c4e84848484610ef8565b61075a5760405162461bcd60e51b815260206004820152603260248201527f4552433732313a207472616e7366657220746f206e6f6e20455243373231526560448201527f63656976657220696d706c656d656e746572000000000000000000000000000060648201526084016103f3565b60606000610ccd8361104f565b600101905060008167ffffffffffffffff811115610ced57610ced6112b9565b6040519080825280601f01601f191660200182016040528015610d17576020820181803683370190505b5090508181016020015b600019017f3031323334353637383961626364656600000000000000000000000000000000600a86061a8153600a8504945084610d2157509392505050565b6001600160a01b038216610db65760405162461bcd60e51b815260206004820181905260248201527f4552433732313a206d696e7420746f20746865207a65726f206164647265737360448201526064016103f3565b6000818152600260205260409020546001600160a01b031615610e1b5760405162461bcd60e51b815260206004820152601c60248201527f4552433732313a20746f6b656e20616c7265616479206d696e7465640000000060448201526064016103f3565b6000818152600260205260409020546001600160a01b031615610e805760405162461bcd60e51b815260206004820152601c60248201527f4552433732313a20746f6b656e20616c7265616479206d696e7465640000000060448201526064016103f3565b6001600160a01b0382166000818152600360209081526040808320805460010190558483526002909152808220805473ffffffffffffffffffffffffffffffffffffffff19168417905551839291907fddf252ad1be2c89b69c2b068fc378daa952ba7f163c4a11628f55a4df523b3ef908290a45050565b60006001600160a01b0384163b1561104457604051630a85bd0160e11b81526001600160a01b0385169063150b7a0290610f3c9033908990889088906004016115cd565b6020604051808303816000875af1925050508015610f77575060408051601f3d908101601f19168201909252610f7491810190611609565b60015b61102a573d808015610fa5576040519150601f19603f3d011682016040523d82523d6000602084013e610faa565b606091505b5080516000036110225760405162461bcd60e51b815260206004820152603260248201527f4552433732313a207472616e7366657220746f206e6f6e20455243373231526560448201527f63656976657220696d706c656d656e746572000000000000000000000000000060648201526084016103f3565b805181602001fd5b6001600160e01b031916630a85bd0160e11b149050610974565b506001949350505050565b6000807a184f03e93ff9f4daa797ed6e38ed64bf6a1f0100000000000000008310611098577a184f03e93ff9f4daa797ed6e38ed64bf6a1f010000000000000000830492506040015b6d04ee2d6d415b85acef810000000083106110c4576d04ee2d6d415b85acef8100000000830492506020015b662386f26fc1000083106110e257662386f26fc10000830492506010015b6305f5e10083106110fa576305f5e100830492506008015b612710831061110e57612710830492506004015b60648310611120576064830492506002015b600a83106102c05760010192915050565b6001600160e01b03198116811461087f57600080fd5b60006020828403121561115957600080fd5b81356107cd81611131565b60005b8381101561117f578181015183820152602001611167565b50506000910152565b600081518084526111a0816020860160208601611164565b601f01601f19169290920160200192915050565b6020815260006107cd6020830184611188565b6000602082840312156111d957600080fd5b5035919050565b80356001600160a01b03811681146111f757600080fd5b919050565b6000806040838503121561120f57600080fd5b611218836111e0565b946020939093013593505050565b60008060006060848603121561123b57600080fd5b611244846111e0565b9250611252602085016111e0565b9150604084013590509250925092565b60006020828403121561127457600080fd5b6107cd826111e0565b6000806040838503121561129057600080fd5b611299836111e0565b9150602083013580151581146112ae57600080fd5b809150509250929050565b634e487b7160e01b600052604160045260246000fd5b600067ffffffffffffffff808411156112ea576112ea6112b9565b604051601f8501601f19908116603f01168101908282118183101715611312576113126112b9565b8160405280935085815286868601111561132b57600080fd5b858560208301376000602087830101525050509392505050565b6000806000806080858703121561135b57600080fd5b611364856111e0565b9350611372602086016111e0565b925060408501359150606085013567ffffffffffffffff81111561139557600080fd5b8501601f810187136113a657600080fd5b6113b5878235602084016112cf565b91505092959194509250565b600080604083850312156113d457600080fd5b6113dd836111e0565b9150602083013567ffffffffffffffff8111156113f957600080fd5b8301601f8101851361140a57600080fd5b611419858235602084016112cf565b9150509250929050565b6000806040838503121561143657600080fd5b61143f836111e0565b915061144d602084016111e0565b90509250929050565b600181811c9082168061146a57607f821691505b60208210810361148a57634e487b7160e01b600052602260045260246000fd5b50919050565b600083516114a2818460208801611164565b8351908301906114b6818360208801611164565b01949350505050565b601f82111561049457600081815260208120601f850160051c810160208610156114e65750805b601f850160051c820191505b81811015611505578281556001016114f2565b505050505050565b815167ffffffffffffffff811115611527576115276112b9565b61153b816115358454611456565b846114bf565b602080601f83116001811461157057600084156115585750858301515b600019600386901b1c1916600185901b178555611505565b600085815260208120601f198616915b8281101561159f57888601518255948401946001909101908401611580565b50858210156115bd5787850151600019600388901b60f8161c191681555b5050505050600190811b01905550565b60006001600160a01b038087168352808616602084015250836040830152608060608301526115ff6080830184611188565b9695505050505050565b60006020828403121561161b57600080fd5b81516107cd8161113156fea164736f6c6343000813000a",
  "linkReferences": {},
  "deployedLinkReferences": {}
}